:100000000A128A11E62FF4007008F6007408F50051
:100010001A287608840083170008F3000130FF00D7
:100020007F08F60775088400730880000130FF0020
:100030007F08F5070130F1020030031CF203F202E1
:10004000710A031D2728720A031D2728282809285A
:100050000800F800780803192E282F284328F31FDA
:100060003228332843287009FA007109FB0072090D
:10007000FC007309FD00FA0A0319FB0A0319FC0AC4
:100080000319FD0A4B287308FD007208FC00710873
:10009000FB007008FA007308720471047004031DF9
:1000A000522853285C280030F3000030F200003062
:1000B000F1000030F000E0289630F9006C280130A3
:1000C000FF007F08F90701300310FD0CFC0CFB0C4E
:1000D000FA0CFF3E031D6428FE307D05031D7128C8
:1000E00072285F288E280130FF007F08F907013051
:1000F000FA07003003180130FB0700300318013005
:10010000FC07003003180130FD0701300310FD0C1F
:10011000FC0CFB0CFA0CFF3E031D8628FF307D050E
:10012000031D932894287328A0280130F902013078
:10013000F4000310FA0DFB0DFC0DFD0DF40B9928D6
:10014000FC1BA328A428AA28023079020318A92896
:10015000AA2895287918AD28AE28B628FF30FA05C8
:10016000FF30FB057F30FC05FF30FD050310F90C67
:100170007908F400F501F601F70118300310F40DC9
:10018000F50DF60DF70DFF3E031DBE287408FA04A9
:100190007508FB047608FC047708FD047808031949
:1001A000D228D328D828F31FD628D728D828FD1737
:1001B0007D08F3007C08F2007B08F1007A08F0006B
:1001C00008003F3083160313D5008030D400003080
:1001D000D3000030D200B901BA015108F300500831
:1001E000F2004F08F1004E08F0000030F700003038
:1001F000F6000030F5000030F4000A168A15AD262E
:100200000A128A11031805290629CF2A17298316ED
:1002100003134008D5003F08D4003E08D3003D0832
:10022000D2000130B9070318BA0A0030BA074130CA
:1002300083120313AB002030AA000030A900003065
:10024000A80083160313550883120313AF00831607
:100250000313540883120313AE00831603135308C9
:1002600083120313AD008316031352088312031382
:10027000AC000A128A15BB240A128A1183120313D6
:100280002B0883160313C000831203132A08831656
:100290000313BF0083120313290883160313BE0040
:1002A00083120313280883160313BD004E08A5000C
:1002B0004F08A6005008A7005108A8003D08A50255
:1002C0003E08031C3E0F65296629A6023F08031C51
:1002D0003F0F6B296C29A7024008031C400F7129AE
:1002E0007229A8022808F3002708F2002608F10066
:1002F0002508F0000A168A15E7240A128A11F31B52
:1003000091297308031D92297208031D922971080F
:10031000031D922902307002031D8E29031C9129AE
:100320009229072983160313400883120313C5007B
:10033000831603133F0883120313C40083160313A9
:100340003E0883120313C300831603133D08831270
:100350000313C20083160313510883120313C90049
:1003600083160313500883120313C8008316031364
:100370004F0883120313C700831603134E0883121A
:100380000313C6000A168A11C9210A128A11031C16
:10039000CA29CB290729831603134E08A5004F0845
:1003A000A6005008A7005108A8005208A50253084B
:1003B000031C530FDC29DD29A6025408031C540F2B
:1003C000E229E329A7025508031C550FE829E9296A
:1003D000A8022808F3002708F2002608F1002508E3
:1003E000F0000A168A15E7240A128A11F31B092A5B
:1003F0007308031D082A7208031D082A7108031DCB
:10040000082A02307002031D052A0318082A092A47
:10041000962A831603135508D1005408D0005308B8
:10042000CF005208CE00CF2A413083120313C500FB
:100430002030C4000030C3000030C2008316031314
:10044000550883120313C90083160313540883123B
:100450000313C80083160313530883120313C70042
:1004600083160313520883120313C6000A128A1557
:100470006E200A128A118312031345088316031390
:10048000D50083120313440883160313D400831288
:100490000313430883160313D30083120313420884
:1004A00083160313D200FF30B9070318BA0AFF30CE
:1004B000BA074E08A5004F08A6005008A70051082B
:1004C000A8005208A5025308031C530F682A692A82
:1004D000A6025408031C540F6E2A6F2AA70255085F
:1004E000031C550F742A752AA8022808F300270850
:1004F000F2002608F1002508F0000A168A15E72404
:100500000A128A11F31B952A7308031D942A720894
:10051000031D942A7108031D942A02307002031DE2
:10052000912A0318942A952A962A092A83160313D6
:10053000510883120313C500831603135008831256
:100540000313C400831603134F0883120313C3005D
:10055000831603134E0883120313C200831603137A
:10056000550883120313C90083160313540883121A
:100570000313C80083160313530883120313C70021
:1005800083160313520883120313C6000A168A1136
:10059000C9210A128A11031CCE2ACF2A142A8316D3
:1005A00003132408B2003208B300EE1BD82AD92A5C
:1005B000DE2A6E08AC006D08AB00E22A0630AB0004
:1005C0000030AC002C08B7002B08B6000130B6078D
:1005D0000318B70A0030B70766303306031DF12A47
:1005E000F22A0C2BBA1FF52AF62A002B3F30D50031
:1005F0008030D4000030D3000030D200B901BA01FD
:10060000673032060319052B062B0C2B3908B60769
:100610000318B70A3A08B707C101C2015108C6005A
:100620005008C5004F08C4004E08C3005508C0005C
:100630005408BF005308BE005208BD00452C831665
:100640000313550883120313C500831603135408BC
:1006500083120313C4008316031353088312031376
:10066000C30083160313520883120313C2008316B8
:100670000313460883120313C900831603134508A6
:1006800083120313C8008316031344088312031351
:10069000C70083160313430883120313C6000A120C
:1006A0008A156E200A128A11831203134508DF008F
:1006B0004408DE004308DD004208DC000A168A1107
:1006C00076230A128A11831203135F088316031319
:1006D000CA00831203135E0883160313C900831232
:1006E00003135D0883160313C800831203135C0809
:1006F00083160313C7004A08F3004908F2004808AC
:10070000F1004708F0000A168A1139200A128A11EE
:10071000710883160313B5007008B40055088312DE
:100720000313AF0083160313540883120313AE00A0
:1007300083160313530883120313AD0083160313A8
:10074000520883120313AC00831603134A08831262
:100750000313AB0083160313490883120313AA0083
:1007600083160313480883120313A9008316031387
:10077000470883120313A8000A128A15BB240A1221
:100780008A11831203132B08C5002A08C400290804
:10079000C3002808C20083160313460883120313FC
:1007A000C90083160313450883120313C800831678
:1007B0000313440883120313C7008316031343086B
:1007C00083120313C6000A168A1597250A128A1186
:1007D00083120313450883160313C6008312031301
:1007E000440883160313C5008312031343088316BA
:1007F0000313C40083120313420883160313C300B8
:10080000413083120313C5002030C4000030C30000
:100810000030C20083160313550883120313C90066
:1008200083160313540883120313C800831603139B
:10083000530883120313C70083160313520883124D
:100840000313C6000A128A156E200A128A11831237
:100850000313450883160313D500831203134408BA
:1008600083160313D4008312031343088316031360
:10087000D30083120313420883160313D2000130FE
:10088000C1070318C20A0030C2074208803AA50017
:100890003708803A2502031D4F2C36084102031CFD
:1008A000522C532C1F2B403083120313AB00A0306B
:1008B000AA000030A9000030A800831603135508D1
:1008C00083120313AF008316031354088312031318
:1008D000AE0083160313530883120313AD0083166F
:1008E0000313520883120313AC000A128A15BB24A7
:1008F0000A128A11831203132B0883160313CA00EA
:10090000831203132A0883160313C90083120313E7
:10091000290883160313C8008312031328088316BB
:100920000313C700460883120313C500831603137D
:10093000450883120313C40083160313440883126B
:100940000313C30083160313430883120313C20067
:10095000831603134A0883120313C9008316031373
:10096000490883120313C80083160313480883122F
:100970000313C70083160313470883120313C6002B
:100980000A168A11C9210A128A110318C82CC92C07
:10099000D42C003083160313CA000030C900003085
:1009A000C8000030C700FD2C831603134608F3006F
:1009B0004508F2004408F1004308F0004A08F70037
:1009C0004908F6004808F5004708F4000A168A1599
:1009D000AD260A128A11031CEE2CEF2CFD2C831677
:1009E00003133418F42CF52CFD2C0030CA00003011
:1009F000C9000030C8000030C700831603134A083E
:100A0000F3004908F2004808F1004708F0005108D7
:100A1000F7005008F6004F08F5004E08F4000A16DB
:100A20008A119C250A128A11730883160313C600C3
:100A30007208C5007108C4007008C300460883121C
:100A40000313C50083160313450883120313C40060
:100A500083160313440883120313C300831603137E
:100A6000430883120313C2004130AB002030AA00B8
:100A70000030A9000030A800831603134008831239
:100A80000313AF00831603133F0883120313AE0052
:100A9000831603133E0883120313AD00831603135A
:100AA0003D0883120313AC000A128A15BB240A12F4
:100AB0008A11831203132B08C9002A08C8002908C9
:100AC000C7002808C6000A168A11C9210A128A110D
:100AD000031C6B2D6C2DBF2D013083160313B9073A
:100AE0000318BA0A0030BA07413083120313AB006F
:100AF0002030AA000030A9000030A800831603139C
:100B0000400883120313AF00831603133F088312B8
:100B10000313AE00831603133E0883120313AD00C4
:100B2000831603133D0883120313AC000A128A15BF
:100B3000BB240A128A11831203132B088316031392
:100B4000C000831203132A0883160313BF00831205
:100B50000313290883160313BE0083120313280806
:100B600083160313BD0066303306031DB82DB92D5F
:100B7000BF2D0130B6070318B70A0030B707831638
:100B800003134008D5003F08D4003E08D3003D08B9
:100B9000D2003A08AA003908A900B101AD01AE019E
:100BA000C101C201712F8316031355088312031369
:100BB000C50083160313540883120313C40083165D
:100BC0000313530883120313C3008316031352083D
:100BD00083120313C2008316031346088312031300
:100BE000C90083160313450883120313C800831634
:100BF0000313440883120313C70083160313430827
:100C000083120313C6000A128A156E200A128A1173
:100C1000831203134508DF004408DE004308DD00AB
:100C20004208DC000A168A1176230A128A118312FE
:100C300003135F0883160313CA00831203135E08AD
:100C400083160313C900831203135D08831603136D
:100C5000C800831203135C0883160313C7004A08F5
:100C6000F3004908F2004808F1004708F0000A16AE
:100C70008A1139200A128A117108803AFF008030E7
:100C80007F02031D452E0A3070020318482E492E9C
:100C90005F2E831603134A08F3004908F200480840
:100CA000F1004708F0000A168A1139200A128A1149
:100CB000710883160313B5007008B400652E09305F
:100CC00083160313B4000030B5003108031D692EEC
:100CD0006A2E9B2EAA1F6D2E6E2E9B2E4C08103E48
:100CE00084002E30831780000130CC070318CD0A12
:100CF0000030CD07FF30BB070318BC0AFF30BC072C
:100D0000B101B10A9B2E4C08103E8400303083178D
:100D100080000130CC070318CD0A0030CD07FF302A
:100D2000BB070318BC0AFF30BC07FF30AD07031830
:100D3000AE0AFF30AE072D082E04031DA02EA12EF3
:100D4000832E4C08103E84003408303E8317800008
:100D50000130CC070318CD0A0030CD07FF30BB07A8
:100D60000318BC0AFF30BC07550883120313AF00F9
:100D700083160313540883120313AE008316031360
:100D8000530883120313AD00831603135208831212
:100D90000313AC00831603134A0883120313AB003A
:100DA00083160313490883120313AA00831603133F
:100DB000480883120313A9008316031347088312FC
:100DC0000313A8000A128A15BB240A128A1183127F
:100DD00003132B08C5002A08C4002908C3002808EB
:100DE000C20083160313460883120313C900831637
:100DF0000313450883120313C80083160313440822
:100E000083120313C70083160313430883120313CB
:100E1000C6000A168A1597250A128A11831203132F
:100E2000450883160313C600831203134408831670
:100E30000313C50083120313430883160313C4006E
:100E400083120313420883160313C3004130831235
:100E50000313C5002030C4000030C3000030C200BE
:100E600083160313550883120313C9008316031353
:100E7000540883120313C800831603135308831204
:100E80000313C70083160313520883120313C6000B
:100E90000A128A156E200A128A118312031345085A
:100EA00083160313D5008312031344088316031318
:100EB000D40083120313430883160313D300831251
:100EC0000313420883160313D200FF30A907031847
:100ED000AA0AFF30AA070130C1070318C20A00306E
:100EE000C2074208803AA5003708803A2502031D50
:100EF0007B2F3608410203187E2F7F2F8E2F8316FB
:100F000003134D08803AFF0080307F02031D8A2FB3
:100F10004B304C02031C8D2F8E2FD32D4F30831658
:100F20000313C1000030C2004108103E8400831743
:100F300080011030F0004D08F2004C08F100103034
:100F4000A5004C08A502410825070A128A110320B2
:100F50000A128A11831603134C084102CC004D0873
:100F6000031C4D0A4202CD004B08031DB82FBA2FB7
:100F70000130BB2F0030A500A6012508C1002608BE
:100F8000C2004B080319C52FC62FD22FFF30CC0744
:100F90000318CD0AFF30CD074C08103E84004B08E3
:100FA000831780004108BB024208031CBC03BC023B
:100FB0004C08103EFB003C08FD003B08FC003808D4
:100FC0000A168A1531260A128A110800831603139D
:100FD000ED01EE01EF01831790308400D0300A1646
:100FE0008A15C3240A128A111030840060300A1650
:100FF0008A15C3240A128A1183010A128A153D2A0E
:10100400080000300A168A15FC240A128A150130D9
:101014000A168A15FC240A128A15080000300A16DA
:101024008A1552250A128A158230F500DD30F40043
:10103400F40B1A28F50B1A281F2803300A168A15F0
:10104400FC240A128A152130F5007630F400F40BE2
:101054002928F50B2928000003300A168A15FC24D8
:101064000A128A154830F5006C30F400F40B382865
:10107400F50B3828000003300A168A15FC240A12DE
:101084008A1502300A168A15FC240A128A150230BF
:101094000A168A15FC240A128A1508300A168A15BB
:1010A400FC240A128A1500300A168A15FC240A1236
:1010B4008A150C300A168A15FC240A128A15003087
:1010C4000A168A15FC240A128A1506300A168A158D
:1010D400FC240A128A150800831203134908803974
:1010E400D3004908CA004A07DA00C81F7A287B28B7
:1010F4007C285A145A0803198028812891285A0AEE
:10110400031D852886288E280030C9000030C800B9
:101114000030C7000030C600C817C9019928003044
:10112400C9000030C8000030C7000030C6004508C0
:101134008039FF007F08D3064508CA004A07DB0050
:10114400C41FA528A628A7285B145B080319AB288D
:10115400AC28BC285B0A031DB028B128B92800308C
:10116400C5000030C4000030C3000030C200C41702
:10117400C501C4280030C5000030C4000030C300DD
:101184000030C2004508440443044204031DCB2834
:10119400CC28E5280030C9000030C8000030C70062
:1011A4000030C6008030C8047F30C9045308FF00F3
:1011B4007F08C9044908C5004808C4004708C3009B
:1011C4004608C2003C2A5A08031DE928EA28F328E5
:1011D4000030C5000030C4000030C3000030C2003D
:1011E4003C2A5A08CA00CB014B08CD005B084A02CE
:1011F400CC00031CCD034C087F3ED4004D080318DB
:10120400013E003ED5004908D2004808D1004708F5
:10121400D0004608CF000030C9000030C8000030BC
:10122400C7000030C6000030D9000030D8000030BC
:10123400D7000030D600DB0169295B080319232994
:10124400242944290130CA000310CF0DD00DD10D3B
:10125400D20DCA0B26290130CA000310C60DC70DD2
:10126400C80DC90DCA0B2F29D91F39293A293B2981
:1012740046140130CA000310D60DD70DD80DD90D70
:10128400CA0B3D2945085202031D52294408510244
:10129400031D522943085002031D522942084F02DC
:1012A400031C55295629652959174208CF024308BA
:1012B400031C430FD0024408031C440FD102450809
:1012C400031C450FD2020130FF007F08DB071A30F0
:1012D4005B02031C6E296F291F2952085104500414
:1012E4004F04031976297729962956149629013033
:1012F400CA000310C60DC70DC80DC90DCA0B7B2942
:10130400D91F85298629872946140130CA0003106C
:10131400D60DD70DD80DD90DCA0B8929FF30D407A6
:101324000318D50AFF30D507C81F99299A297929A6
:10133400DB01D91F9E299F29BB29FF305605CA000E
:10134400FF305705CB00FF305805CC007F305905DE
:10135400CD004D084C044B044A040319B229B329A7
:10136400B629DB01DB0ABB29461CB929BA29BB29EA
:10137400B3295B080319BF29C029F1290130C60725
:10138400003003180130C707003003180130C807C4
:10139400003003180130C907491CD129D229F12989
:1013A4004608CA004708CB004808CC004908CD00CD
:1013B4000130CE004D0DCD0CCC0CCB0CCA0CCE0B99
:1013C400DC294D08C9004C08C8004B08C7004A086E
:1013D400C6000130D4070318D50A0030D5075508D4
:1013E400803AFF0080307F02031DFA29FF30540247
:1013F400031CFD29FE290C2AFF3083120313D40099
:101404000030D5000030C9000030C8000030C700EB
:101414000030C600831203135508803AFF00803061
:101424007F02031D172A0130540203181A2A1B2AAB
:10143400282A83120313D401D5010030C9000030D7
:10144400C8000030C7000030C600D3018312031364
:101454005408DA005A1C2F2A302A322AC817362A8E
:101464007F30FF007F08C8055A08CA0003104A0CE1
:10147400C900D82808008316031386010A168A11A6
:1014840000200A128A150A128A1510200A128A15D7
:10149400831603130514851405150A168A15D62414
:1014A4000A128A158316031308110030F000F100A4
:1014B4000A168A15FB260A128A1571088316031761
:1014C400CF007008CE000130F0000030F1000A16A1
:1014D4008A15FB260A128A15710883160317CD0094
:1014E4007008CC000230F0000030F1000A168A15B2
:1014F400FB260A128A15710883160317B7007008B1
:10150400B600443083120313C5008030C400003099
:10151400C3000030C2004230AB00C830AA00003023
:10152400A9000030A800831603174E08F0004F08E6
:10153400F100F201F30100300A128A1129200A1283
:101544008A15730883120313AF007208AE00710882
:10155400AD007008AC000A128A15BB240A128A1561
:10156400831203132B08C9002A08C8002908C700DE
:101574002808C6000A128A156E200A128A158312D8
:101584000313450883160317A700831203134408A3
:1015940083160317A6008312031343088316031745
:1015A400A50083120313420883160317A4004430D2
:1015B40083120313C5008030C4000030C300003020
:1015C400C2004230AB00C830AA000030A90000308D
:1015D400A800831603174C08F0004D08F100F2012F
:1015E400F30100300A128A1129200A128A1573089D
:1015F40083120313AF007208AE007108AD007008C7
:10160400AC000A128A15BB240A128A15831203132A
:101614002B08C9002A08C8002908C7002808C600E2
:101624000A128A156E200A128A15831203134508BA
:1016340083160317A30083120313440883160317A6
:10164400A20083120313430883160317A100831215
:101654000313420883160317A000403083120313B8
:10166400AB00A030AA000030A9000030A80044302C
:10167400C5008030C4000030C3000030C2008316AF
:1016840003173608F0003708F100F201F3010030C7
:101694000A128A1129200A128A1573088312031365
:1016A400C9007208C8007108C7007008C6000A1291
:1016B4008A156E200A128A15831203134508AF0097
:1016C4004408AE004308AD004208AC000A128A1573
:1016D400BB240A128A15831203132B0883160317DB
:1016E4009B00831203132A08831603179A0083129C
:1016F4000313290883160317990083120313280878
:10170400831603179800413083120313AB00203073
:10171400AA000030A9000030A800BF30F300003058
:10172400F2000030F1000030F000831603171B08AC
:10173400F7001A08F6001908F5001808F4000A164C
:101744008A119C250A128A15730883120313AF00A9
:101754007208AE007108AD007008AC000A128A1558
:10176400BB240A128A15831203132B08831603174A
:101774009F00831203132A08831603179E00831203
:1017840003132908831603179D00831203132808E3
:10179400831603179C000A128A1503200A128A155D
:1017A400F401F40A01300A168A11AF200A128A15CC
:1017B400013083160313E5008316031727088316E5
:1017C4000313E90083160317260883160313E8009E
:1017D40083160317250883160313E70083160317DC
:1017E400240883160313E600B8300A168A157425F4
:1017F4000A128A15B830F5000130F6000A168A1567
:101804006B260A128A150F3083160313E50083161C
:101814000317230883160313E9008316031722080A
:1018240083160313E8008316031721088316031392
:10183400E70083160317200883160313E600B83065
:101844000A168A1574250A128A15F401F40A02305C
:101854000A168A11AF200A128A15B830F500013031
:10186400F6000A168A156B260A128A151D3083168D
:101874000313E500831603171F0883160313E900F7
:10188400831603171E0883160313E8008316031731
:101894001D0883160313E700831603171C08831619
:1018A4000313E600B8300A168A1574250A128A153D
:1018B400F401F40A03300A168A11AF200A128A15B9
:1018C400B830F5000130F6000A168A156B260A12A4
:1018D4008A15F401F40A04300A168A11AF200A1298
:1018E4008A152A30F5008030F6000A168A156B2610
:1018F4000A128A15C33083160313EC00CC30EB00B4
:10190400EB0B822CEC0B822C0000831603172308AC
:1019140083120313C50083160317220883120313CB
:10192400C40083160317210883120313C30083160C
:101934000317200883120313C2004230C900483041
:10194400C8000030C7000030C6000A168A11C92139
:101954000A128A150318AF2CB02CB42C831203136B
:101964000815572A831203130811572A0A128A11D9
:101974000028831203132B088039B5002B08B0000C
:101984003007BB00AA1FC72CC82CC92C3B143B082A
:101994000319CD2CCE2CDD2C3B0A031DD22CD32CC9
:1019A400DB2C0030AB000030AA000030A90000306E
:1019B400A800AA17E52C0030AB000030AA000030C4
:1019C400A9000030A8002F088039FF007F08B50661
:1019D4002F08B0003007BA00AE1FF12CF22CF32C04
:1019E4003A143A080319F72CF82C072D3A0A031D68
:1019F400FC2CFD2C052D0030AF000030AE00003073
:101A0400AD000030AC00AE170F2D0030AF00003039
:101A1400AE000030AD000030AC003A080319132DBD
:101A2400142D192D3B08031D182D192D222D0030BE
:101A3400AB000030AA000030A9000030A800FF2F3E
:101A44002808F0002E080A168A15E0250A128A15BD
:101A5400710883120313C1007008C0004008B0006D
:101A6400B101B201B3013308B9003208B80031083A
:101A7400B7003008B6004108B000B101B201B301AB
:101A84003308BF003208BE003108BD003008BC0076
:101A94002908F0002D080A168A15E0250A128A156D
:101AA400710883120313C1007008C0004008B0001D
:101AB400B101B201B3013008B607310803110318AC
:101AC400013E0319662DB707320803110318013EBE
:101AD40003196D2DB807330803110318013E0319C8
:101AE400742DB9074108B000B101B201B301300847
:101AF400BC07310803110318013E0319822DBD07E9
:101B0400320803110318013E0319892DBE07330857
:101B140003110318013E0319902DBF072A08F00092
:101B24002C080A168A15E0250A128A1571088312F0
:101B34000313C1007008C0004008B000B101B20135
:101B4400B3013008B607310803110318013E031925
:101B5400AC2DB707320803110318013E0319B32D46
:101B6400B807330803110318013E0319BA2DB90746
:101B74004108B000B101B201B3013008BC0731081B
:101B840003110318013E0319C82DBD0732080311C0
:101B94000318013E0319CF2DBE07330803110318A0
:101BA400013E0319D62DBF070830B0000310B60D4F
:101BB400B70DB80DB90DB00BD82D2908F0002C08BD
:101BC4000A168A15E0250A128A157108831203136E
:101BD400C1007008C0004008B0004108B100B20163
:101BE400B3013008B607310803110318013E031985
:101BF400FC2DB707320803110318013E0319032E05
:101C0400B807330803110318013E03190A2EB90754
:101C14002808F0002D080A168A15E0250A128A15EC
:101C2400710883120313C1007008C0004008B0009B
:101C34004108B100B201B3013008B60731080311FD
:101C44000318013E0319272EB7073208031103189E
:101C5400013E03192E2EB807330803110318013E61
:101C64000319352EB9070830B0000310B60DB70DAF
:101C7400B80DB90DB00B372E2808F0002C080A1641
:101C84008A15E0250A128A15710883120313C1000C
:101C94007008C0004008B0004108B100B201B301AF
:101CA4003008B607310803110318013E03195B2EEF
:101CB400B707320803110318013E0319622EB8074F
:101CC400330803110318013E0319692EB9072908C3
:101CD400F0002E080A168A15E0250A128A157108E2
:101CE40083120313C1007008C0004008B00041080B
:101CF400B100B201B3013008BC0731080311031865
:101D0400013E0319862EBD07320803110318013E54
:101D140003198D2EBE07330803110318013E03195E
:101D2400942EBF072A08F0002D080A168A15E0250C
:101D34000A128A15710883120313C1007008C000C7
:101D44004008B0004108B100B201B3013008BC073B
:101D5400310803110318013E0319B12EBD073208DF
:101D640003110318013E0319B82EBE0733080311EB
:101D74000318013E0319BF2EBF072A08F0002E08DE
:101D84000A168A15E0250A128A15710883120313AC
:101D9400C1007008C0004008B0004108B100B201A1
:101DA400B30108300310B00DB10DB20DB30DFF3EF9
:101DB400031DD42E3008BC07310803110318013E5B
:101DC4000319E52EBD07320803110318013E031958
:101DD400EC2EBE07330803110318013E0319F32E3A
:101DE400BF073608B0003708B1003808B200390818
:101DF400B30018300310B30CB20CB10CB00CFF3E9E
:101E0400031DFC2E3008BC07310803110318013EE2
:101E140003190D2FBD07320803110318013E0319DE
:101E2400142FBE07330803110318013E03191B2F97
:101E3400BF070830B0000310B60DB70DB80DB90DCB
:101E4400B00B1D2F3B083A07B000B101B10D3008AB
:101E5400823EC00031080318013EFF3EC1004F2FEF
:101E64000130B0000310BC0DBD0DBE0DBF0DB00B95
:101E7400342FB91F3E2F3F2F402F3C140130B000A8
:101E84000310B60DB70DB80DB90DB00B422FFF30CE
:101E9400C0070318C10AFF30C107BE1F522F532FBA
:101EA400322FBA01B91F572F582F742FFF30360520
:101EB400B000FF303705B100FF303805B2007F3085
:101EC4003905B300330832043104300403196B2F8D
:101ED4006C2F6F2FBA01BA0A742F3C1C722F732F08
:101EE400742F6C2F3A080319782F792FAA2F0130F9
:101EF400BC07003003180130BD070030031801305F
:101F0400BE07003003180130BF073F1C8A2F8B2FF8
:101F1400AA2F3C08B0003D08B1003E08B2003F08BB
:101F2400B3000130B400330DB30CB20CB10CB00CDF
:101F3400B40B952F3308BF003208BE003108BD0032
:101F44003008BC000130C0070318C10A0030C107C3
:101F54004108803AFF0080307F02031DB32FFF3019
:101F64004002031CB62FB72FC22F7F3083120313F6
:101F7400BF008030BE000030BD000030BC00F32F35
:101F8400831203134108803AFF0080307F02031D4F
:101F9400CD2F013040020318D02FD12FDD2F003078
:101FA40083120313BF000030BE000030BD000030B8
:101FB400BC00B501F32F831203134008BB00FF30AC
:101FC400BC05FF30BD057F30BE050030BF053B1C9E
:101FD400EC2FED2FEE2FBE173B08B0000310300C92
:101FE400BF003508FF007F08BF043F08AB003E0870
:101FF400AA003D08A9003C08A800080083160313A2
:1020040086010800F40074080F39F2007408F039EE
:10201400F3008312031306147308F1000430031051
:10202400F10CFF3E031D112871080A168A1552256A
:102034000A168A118312031386144230F100F10B3D
:102044002128000083120313861072080A168A15C9
:1020540052250A168A118312031386144230F100A2
:10206400F10B3228000083120313861008000310BA
:10207400720D730DF9007908031D412842284B287D
:102084000030F3000030F2000030F1000030F000C6
:10209400AE287008F4007108F5007208F6007308A1
:1020A400F7001F300310F70CF60CF50CF40CFF3E90
:1020B400031D54287408F800F217FF30F005FF30B0
:1020C400F105FF30F2050030F3059630F902F91FEF
:1020D4006C286D2887287908803A973E031873285E
:1020E40074287528422801300310F30CF20CF10C0B
:1020F400F00CFF3E031D76280130FF007F08F9072E
:10210400031D8528862875289E2820307902031C03
:102114008C288D28992842280130F4000310F00DF2
:10212400F10DF20DF30DF40B90280130F90279084A
:10213400031D9D289E288E2878080319A228A32809
:10214400AE28F009F109F209F309F00A0319F10ABA
:102154000319F20A0319F30A0800F6007603031DB3
:10216400B428B528D22874087F3EF9007908F50010
:1021740004300310F50CFF3E031DBB287508F7005F
:1021840079080F39F80077080A168A15FC240A160C
:102194008A1178080A168A15FC240A168A113B2922
:1021A40002307606031DD728D828F5287408BF3EC8
:1021B400F9007908F50004300310F50CFF3E031D07
:1021C400DE287508F70079080F39F80077080A1631
:1021D4008A15FC240A168A1178080A168A15FC2422
:1021E4000A168A113B2903307606031DFA28FB28B8
:1021F400182974088F3EF9007908F500043003109B
:10220400F50CFF3E031D01297508F70079080F3905
:10221400F80077080A168A15FC240A168A11780829
:102224000A168A15FC240A168A113B2904307606FC
:10223400031D1D291E293B297408CF3EF900790886
:10224400F50004300310F50CFF3E031D2429750826
:10225400F70079080F39F80077080A168A15FC2464
:102264000A168A1178080A168A15FC240A168A1195
:102274003B29080083160317170883120313A500CC
:1022840083160317160883120313A4008316031777
:10229400150883120313A30083160317140883126B
:1022A4000313A2007308A5007208A4007108A30018
:1022B4007008A2002208F4002308F5002408F600A0
:1022C4002508F70017300310F70CF60CF50CF40C86
:1022D400FF3E031D6529FF307405A000003075051D
:1022E400A10020082104031D782979299C292208AA
:1022F400F4002308F5002408F6002508F70001304F
:102304000310F40DF50DF60DF70DFF3E031D8229A4
:102314007708760475047404031D9129922997297A
:102324000230F0000030F100C8290330F000003022
:10233400F100C829200A2104031DA129A229C429C6
:102344002208F4002308F5002408F6002508F70005
:1023540009300310F40DF50DF60DF70DFF3E031DC6
:10236400AB2977087604750474040319BA29BC29C7
:102374000130BD290030F800F9017808F00079082F
:10238400F100C8290430F0000030F10008000030EA
:10239400831203134205CA0000304305CB0080308A
:1023A4004405CC007F304505CD004D084C044B045A
:1023B4004A04031DDE29DF29E7290030C500003067
:1023C400C4000030C3000030C20000304605CA001B
:1023D40000304705CB0080304805CC007F304905EC
:1023E400CD004D084C044B044A04031DFA29FB2973
:1023F400032A0030C9000030C8000030C700003094
:10240400C600C51F062A072A2B2A0030CA0000303E
:10241400CB000030CC008030CD004208CA02430813
:10242400031C430F162A172ACB024408031C440F2B
:102434001C2A1D2ACC024508031C450F222A232AE4
:10244400CD024D08C5004C08C4004B08C3004A081F
:10245400C200C91F2E2A2F2A532A0030CA00003076
:10246400CB000030CC008030CD004608CA024708BB
:10247400031C470F3E2A3F2ACB024808031C480F7F
:10248400442A452ACC024908031C490F4A2A4B2AEC
:10249400CD024D08C9004C08C8004B08C7004A08C3
:1024A400C6008030C5068030C90649084502031DB0
:1024B400652A48084402031D652A47084302031D90
:1024C400652A460842020318682A692A6B2A0310FF
:1024D4006C2A0314080083160313B800CB012308E5
:1024E400D1002208D0002108CF002008CE005108D6
:1024F40083120313C50083160313500883120313B6
:10250400C400831603134F0883120313C3008316F6
:1025140003134E0883120313C2000030C9000030B5
:10252400C8000030C7000030C6000A168A11C9214D
:102534000A168A1103189F2AA02ABB2A831603139A
:10254400CB01CB0A5108F3005008F2004F08F10008
:102554004E08F0000A168A15CB240A168A1173084D
:1025640083160313D1007208D0007108CF007008DD
:10257400CE0083160313CC01CD018316031735084F
:1025840083160313BC00831603173408831603133E
:10259400BB004B080319CF2AD02AE02A4B08031D9D
:1025A400D42AD52ADA2A2B30AF000030B000DE2A34
:1025B4002D30AF000030B0002F08CB005108F300DD
:1025C4005008F2004F08F1004E08F0000A168A1174
:1025D4003C210A168A1170037104031DF22AF32A9E
:1025E4002A2B831603134B080319F92AFA2A0A2BF8
:1025F4004B08831203179000FF3083160313BB07A5
:102604000318BC0AFF30BC070130CC000030CD00F9
:102614003130F0004C08103E0A168A1516250A16A9
:102624008A11FD3083160313BB070318BC0AFF305D
:10263400BC071030FB003C08FD003B08FC003808D8
:102644000A168A1531260A168A110A128A11E52FEA
:10265400831603135108F3005008F2004F08F100E9
:102664004E08F0000A168A113C210A168A117008D5
:102674007104031D3E2B412B0A128A11E128831693
:1026840003134B080319472B482B582B4B08831271
:1026940003179000FF3083160313BB070318BC0A0B
:1026A400FF30BC070130CC000030CD003530F000E5
:1026B4004C08103E0A168A1516250A168A11FD3092
:1026C40083160313BB070318BC0AFF30BC07103082
:1026D400FB003C08FD003B08FC0038080A168A157C
:1026E40031260A168A11272B83160317130883121F
:1026F4000313EF0083160317120883120313EE006B
:1027040083160317110883120313ED0083160317AE
:10271400100883120313EC005F08EF005E08EE005C
:102724005D08ED005C08EC006C08E0006D08E10059
:102734006E08E2006F08E30017300310E30CE20CAC
:10274400E10CE00CFF3E031D9F2BFF306005E4000D
:1027540000306105E5006408813EEA00650803185D
:10276400013EFF3EEB006B08803AFF0080307F02A1
:10277400031DBE2B17306A02031CC12BC22BC32BB3
:10278400842C83120313EB1BC82BC92B392C6A0A24
:10279400FF00FF30E000FF30E1007F30E200003056
:1027A400E300D92B630DE30CE20CE10CE00CFF0B0E
:1027B400D42B6308E9006208E8006108E7006008B8
:1027C400E60066086C05E00067086D05E10068082E
:1027D4006E05E20069086F05E300630862046104A2
:1027E4006004031DF62BF72BF82BC22B6C08E000BA
:1027F4006D08E1006E08E2006F08E3001F3003106B
:10280400E30CE20CE10CE00CFF3E031D012C630819
:102814006204610460040319102C112C282C66082E
:10282400EC07670803110318013E03191A2CED077E
:10283400680803110318013E0319212CEE076908E7
:1028440003110318013E0319282CEF076609E00061
:102854006709E1006809E2006909E3006008EC0522
:102864006108ED056208EE056308EF057C2C6C0831
:10287400E0006D08E1006E08E2006F08E3001F301D
:102884000310E30CE20CE10CE00CFF3E031D422CB0
:102894006308620461046004031D512C522C5B2CF8
:1028A4000030EF000030EE000030ED000030EC00AE
:1028B4007C2C6C08E0006D08E1006E08E2006F08F3
:1028C400E30001300310E00DE10DE20DE30DFF3EE6
:1028D400031D642C63086204610460040319732CEF
:1028E400742C7C2CBF30EF008030EE000030ED0003
:1028F4000030EC006F08DF006E08DE006D08DD00BC
:102904006C08DC00080083160313DF0056088400FB
:102914008313000884000A168A150A200A168A11ED
:10292400253A031D962C972C842D0130FF00560860
:1029340084007F08800783160317B401B5010310D0
:1029440000300318013083160313EF00FF30ED004D
:10295400FF30EE0056088400000884000A168A1529
:102964000A200A168A112E3A031DB92CBA2CCE2C31
:102974000130FF00560884007F0880075708F600DE
:1029840056080A168A15A6270A168A117708831686
:102994000313EE007608ED00560884008313000844
:1029A400E000600884000A168A150A200A168A11B3
:1029B400DE00E62C0130FF007F08E007F12C6C30CC
:1029C400DE00F12CDE01F12C5E084C3A0319DC2CFC
:1029D4002A3A0319E12C0A3A0319DC2CE42C600886
:1029E40084000A168A150A200A168A11663A031DFB
:1029F400FC2CFD2C5A2D2A2D57088400831700081F
:102A0400FF00043080077F08840083130008DA0085
:102A1400840A0008DB00840A0008DC00840A000839
:102A2400DD00322D5708840083170008FF000430AE
:102A340080077F08840083130008DA00840A0008F2
:102A4400DB00840A0008DC00840A0008DD00322D63
:102A54005E084C3A0319142D203A0319FE2C322D2A
:102A6400560884006008013E80004F2D5D08A300D5
:102A74005C08A2005B08A1005A08A000600884005A
:102A84000A168A150A200A168A11A4005F080A1673
:102A94008A116D220A168A119B2D600884000A1679
:102AA4008A150A200A168A11663A0319382D5A2DF6
:102AB40056088400000884000A168A150A200A169B
:102AC4008A11253A031D672D682D7A2D0130FF00E8
:102AD400560884007F0880072530F0000030F1009C
:102AE4005F08F2000A168A1550270A168A119B2DD0
:102AF4000130FF0083160313560884007F088313F4
:102B040080079B2D56088400000884000A168A1545
:102B14000A200A168A11D800D9015808F000590869
:102B2400F1005F08F2000A168A1550270A168A1166
:102B34007A2D080073088039F80073088312031390
:102B4400A0002007FA00F21FA82DA92DAA2D7A149F
:102B54007A080319AE2DAF2DBF2D7A0A031DB32DAC
:102B6400B42DBC2D0030F3000030F2000030F10031
:102B74000030F000F217F301C72D0030F3000030ED
:102B8400F2000030F1000030F00077088039F900DD
:102B9400790878060319CF2DD02DD12D7817770811
:102BA400A0002007F900F61FD82DD92DDA2D7914AD
:102BB40079080319DE2DDF2DEF2D790A031DE32D8E
:102BC400E42DEC2D0030F7000030F6000030F50065
:102BD4000030F400F617F701F72D0030F70000304D
:102BE400F6000030F5000030F4007A08790203188A
:102BF400FC2DFD2D232E781F002E012E052E803056
:102C0400FF007F08F8067A08FB007908FA007B08C1
:102C1400F9007008FB007408F0007B08F4007108E8
:102C2400FB007508F1007B08F5007208FB007608CC
:102C3400F2007B08F6007308FB007708F3007B08BA
:102C4400F700FB017908A000A1012108A3007A087C
:102C54002002A200031CA3032308803AFF00803053
:102C64007F02031D372E1A302202031C3A2E3B2EFC
:102C7400742E7308720471047004031D422E442ED2
:102C84000130452E0030FB000030F3000030F2002C
:102C94000030F1000030F0007908FA007A2E7B1C35
:102CA400542E552E5E2E7B0883120313A0000310AE
:102CB400200C0138FB00602E0310FB0C701C632EEB
:102CC400642E652EFB17013083120313A000730DCD
:102CD400F30CF20CF10CF00CA00B692E0130FF0088
:102CE4007F08FA0779087A02031C792E7A2E512E6E
:102CF400781B7D2E7E2ECB2E7A08031D822E832EEA
:102D04008C2E0030F3000030F2000030F10000306F
:102D1400F000FF2F7408F007750803110318013E33
:102D24000319952EF107760803110318013E0319C0
:102D34009C2EF207770803110318013E0319A32EF2
:102D4400F307731CA62EA72E832F7B1CAA2EAB2E53
:102D5400B42E7B0883120313A0000310200C013847
:102D6400FB00B62E0310FB0C701CB92EBA2EBB2E22
:102D7400FB17013083120313A000730DF30CF20C44
:102D8400F10CF00CA00BBF2E0130FF007F08FA07F6
:102D9400832F7308803AFF007708803A7F02031D6F
:102DA400DD2E76087202031DDD2E75087102031DE7
:102DB400DD2E740870020318E02EE12E3B2FFF3045
:102DC40083120313A000FF30A100FF30A200FF30E4
:102DD400A3007408A4007508A5007608A600770867
:102DE400A7007008A4027108031C710FFA2EFB2EB1
:102DF400A5027208031C720F002F012FA60273088C
:102E0400031C730F062F072FA7022408A007250809
:102E14000318250F0E2F0F2FA10726080318260FBE
:102E2400142F152FA20727080318270AA30723081E
:102E3400F3002208F2002108F1002008F00080309D
:102E4400FF007F08F806FB09FB0A7B08031D2B2FF4
:102E54002C2F492F0130F007003003180130F107FF
:102E6400003003180130F207003003180130F30773
:102E7400492F7408F0027508031C750FF1027608D7
:102E8400031C760FF2027708031C770FF302730812
:102E9400720471047004031D502F512F7F2F7B087F
:102EA400031D552F562F7F2F0030F3000030F20002
:102EB4000030F1000030F000FF2F013083120313C3
:102EC400A0000310F00DF10DF20DF30DA00B632F14
:102ED400FB1F6D2F6E2F6F2F70147B1C722F732F9F
:102EE400762F0314FB0D782F0310FB0D7A080319BA
:102EF4007C2F7D2F7F2F0130FA02F21F822F832F28
:102F04005F2FF901FB1F872F882F962F7B087F39AE
:102F140003198D2F8E2F912FF901F90A962F701C0A
:102F2400942F952F962F8E2F790803199A2F9B2F64
:102F3400D12F0130F007003003180130F1070030C1
:102F440003180130F207003003180130F307731C33
:102F5400AC2FAD2FD12F700883120313A00071087A
:102F6400A1007208A2007308A3000130A400230D7D
:102F7400A30CA20CA10CA00CA40BB92F2308F300E2
:102F84002208F2002108F1002008F0007A0A03194F
:102F9400CC2FCD2FD12F0130FF007F08FA077A0AFA
:102FA4000319D52FD62FDB2F7A08031DDA2FDB2F39
:102FB400E92F0030F3000030F2000030F10000305F
:102FC400F0007A08031DE72FE82FE92FF8017A1C97
:102FD400EC2FED2FEF2FF217F32F7F30FF007F0838
:102FE400F2057A0883120313A0000310200CF300E7
:102FF400F81FFD2FFE2FFF2FF3170800FF1B0A28D1
:1030040083137F1883170008840A0319FF0A080032
:1030140018308A000408840A8207003453346F3459
:1030240069346C343A34203425342E3431346634E3
:1030340020342534253400345734613474346534F1
:1030440072343A34203425342E3432346634253400
:1030540025340034543465346D3470343A342034B7
:1030640025342E343234663420344334003461340D
:1030740061347434683469346C34003469346E34C3
:0C308400663400346E3461346E34003465
:1039860064008001840A0406031900340406C42C6A
:1039960073087204710470040319D22CD32CD52C2D
:1039A6008030F3060800831203131F179F13831634
:1039B60003131F179F171F109F101F119F118312AC
:1039C60003131F141F150800F31BEA2CEB2CEC2C19
:1039D600FB2C7009F0007109F1007209F2007309FD
:1039E600F300F00A0319F10A0319F20A0319F30A9C
:1039F6000800F30083120313061073080A168A15CB
:103A060052250A168A158312031386141A30F200F9
:103A1600F830F100F10B0D2DF20B0D2D0000831285
:103A2600031386100800F2007208F1000130F00757
:103A3600FF30700784000A168A150A200A168A15AE
:103A4600FF00710884000130F1077F0883178000AA
:103A56000008031D2F2D302D192D08008316031382
:103A6600E3006108E400412DE430D6006208D70087
:103A760063080A168A1185240A168A158316031303
:103A8600640884000A168A150A200A168A15003A5E
:103A9600031D4E2D4F2D372DE101E2010800F000E8
:103AA600701C562D572D5B2D8312031306155E2DA4
:103AB600831203130611F01C612D622D642D8615E9
:103AC600652D8611701D682D692D6B2D06166C2DC2
:103AD6000612F01D6F2D702D722D8616732D86120F
:103AE600080083160317D100E630D0005108D20033
:103AF600D401D501DB01DC01831603136508E1005F
:103B0600D030E200D2300A168A1531250A168A15F7
:103B1600831603175408510783160313EA006A082D
:103B26008400831780010800803083120313C506C2
:103B36004908F3004808F2004708F1004608F0007B
:103B46004508F7004408F6004308F5004208F4006B
:103B56000A168A119C250A168A15730883120313FE
:103B6600C5007208C4007108C3007008C2000800CE
:103B7600F401F501701CC02DC12DC72D7208F40784
:103B86000318F50A7308F50701300310F20DF30D5B
:103B9600FF3E031DC82D01300310F10CF00CFF3E53
:103BA600031DCF2D70087104031DDA2DDB2DBD2DED
:103BB6007508F1007408F0000800F800F401F5013A
:103BC6007008F200F3017208F6007308F700781C1B
:103BD600ED2DEE2DF42D7608F4070318F50A770877
:103BE600F50701300310F60DF70DFF3E031DF52D09
:103BF6000310F80C7808031D012E022EEA2D750815
:103C0600F1007408F000080083120313A300A10159
:103C1600A201232E2008F900FA017908F0007A089B
:103C2600F1007808F2000A168A1550270A168A1536
:103C3600013083120313A1070318A20A0030A2075A
:103C460021082307F9007908840083170008A000DB
:103C56002008031D2F2E302E0D2E0800831203136D
:103C6600A700FD1F372E382E3A2EFC01FD01A501B7
:103C7600A601522E2030F0000030F100831203130B
:103C86002708F2000A168A1550270A168A150130E7
:103C960083120313A5070318A60A0030A6072608F1
:103CA600803AA4007D08803A2402031D5C2E7C081D
:103CB6002502031C5F2E602E3D2E83120313270858
:103CC600F8007B080A168A1507260A168A150800C0
:103CD600FA01FB01902E7A087507F8007608F700BE
:103CE6000318F70AFA1F782EF7037708F900790800
:103CF60083120313FF00780884000A168A15002031
:103D06000A168A150A168A1104200A168A1501301F
:103D1600FA070318FB0A0030FB077A087507F80054
:103D26007608F7000318F70AFA1F9A2EF7037708A2
:103D3600F900790883120313FF00780884000A1635
:103D46008A1500200A168A15003A031DAB2EAC2EE2
:103D56006E2E080000307005F80000307105F9007D
:103D660080307205FA007F307305FB007B087A0409
:103D760079047804031DC02EC12EC92E0030F3002D
:103D86000030F2000030F1000030F0000030740521
:103D9600F80000307505F90080307605FA007F30AE
:103DA6007705FB007B087A0479047804031DDC2E72
:103DB600DD2EE52E0030F7000030F6000030F5006D
:103DC6000030F40077087306031DF32E760872069A
:103DD600031DF32E75087106031DF32E7408700675
:103DE6000319F62EF72EF92E0310FA2E03140800E7
:103DF600242FC730831203139F053D2F831203130D
:103E06001F08C73908389F003D2F831203131F0868
:103E1600C73910389F003D2F831203131F08C73977
:103E260018389F003D2F831203131F08C739203807
:103E36009F003D2F831203131F08C73928389F00A0
:103E46003D2F7108003A0319292F3D2F7008003ABB
:103E56000319FC2E013A0319012F033A0319082FFF
:103E6600013A03190F2F073A0319162F013A0319BE
:103E76001D2F3D2FA630F200F20B3F2F00008312BC
:103E860003131F151F19482F492F452F1E08F10030
:103E9600831603131E08F000080072080319542F36
:103EA600552F5A2F7208031D592F5A2F612F70084C
:103EB6000A128A1502200A168A15A52F7208093ECB
:103EC600840083170008F300840A0008F4007308CE
:103ED600740403196F2F702F8E2F7208093E840009
:103EE6000008F300840A0008F4007208023E840009
:103EF6000008F500840A0008F6007608803AF70004
:103F06007408803A7702031D8A2F73087502031816
:103F16008D2F8E2FA52F7208023E8400831700086E
:103F2600F3007208840000087307F4007408840024
:103F3600700880007208023E840001308007840AFF
:103F46000318800A0800FB00F901FA017B088400C7
:103F56008313000884000A168A150A200A168A1591
:103F66002A3A031DB72FB82FEA2F0130FF007B082E
:103F760084007F0880077608840083170008FF0006
:103F8600023080077F08840083130008F900840A42
:103F96000008FA00FB2F7A08F1007908F0000A30D1
:103FA600F2000030F3000A168A15BB250A168A1598
:103FB60078087007F9000030031801307107FA001D
:103FC6000130FF007B0884007F08831380077B088D
:103FD6008400000884000A168A150A200A168A1523
:103FE600D03EF8000A307802031CFA2FFB2FCE2FA2
:0A3FF6007A08F7007908F6000800C9
:02400E00323F3F
:00000001FF
