:100000000A128A11EB2F00308A000408840A820742
:100010000034413444344334253464343D3425348D
:0400200075340034FF
:1004360008008316031386010800831203138C1E1B
:10044600252A262A202A1A08080064008001840A20
:100456000406031900340406292A00300A128A11F8
:100466004E220A128A1101300A128A114E220A12EB
:100476008A110800F71B402A412A422A4D2A76098A
:10048600F8007709F900F80A0319F90A7808F6005E
:100496007908F7000800F3008312031306107308A7
:1004A6000A128A11E3220A128A118312031386148E
:1004B6001A30F200F830F100F10B5F2AF20B5F2AD6
:1004C6000000831203138610080083160313981383
:1004D600181398161812181598101810831203136B
:1004E60098171813981218169811181198101810B2
:1004F60081308316031399008717071308008312A8
:100506000313DA005430D9005A08DB00DD01DE019E
:10051600E401E5015308CF005930D0005B300A12E0
:100526008A11C2220A128A11831203135D085A071E
:10053600D80058088400831780010800F800F601E7
:10054600F701B62A76087807F500750884000008D2
:100556000A128A1105230A128A110130F6070318B6
:10056600F70A0030F70776087807F5007508840063
:1005760083170008031DC02AC12AA52A0800831272
:100586000313D1004F08D200D22A5230FA00500885
:10059600FB0051080A128A117E260A128A1183125A
:1005A6000313520884000A128A1103200A128A11C0
:1005B600003A031DDF2AE02AC82ACF01D00108002D
:1005C600F000701CE72AE82AEC2A831203130615AA
:1005D600EF2A831203130611F01CF22AF32AF52AD6
:1005E6008615F62A8611701DF92AFA2AFC2A06169D
:1005F600FD2A0612F01D002B012B032B8616042B59
:1006060086120800F40074080F39F2007408F039F5
:10061600F3008312031306147308F1000430031069
:10062600F10CFF3E031D122B71080A128A11E322F8
:100636000A128A118312031386144230F100F10B59
:10064600222B000083120313861072080A128A11E5
:10065600E3220A128A118312031386144230F10030
:10066600F10B332B00008312031386100800700869
:10067600710403193F2B402B6F2BF401F40A4E2B08
:1006860001300310F00DF10DFF3E031D442B013028
:10069600FF007F08F407F11F512B522B432B7108E3
:1006A6007302031D582B70087202031C5B2B5C2B14
:1006B600622B7008F2027108031CF303F302013087
:1006C6000310F10CF00CFF3E031D632B0130F40206
:1006D600031D6E2B6F2B522B7308F1007208F0006E
:1006E6000800F401F5017008710403197B2B7C2BBB
:1006F600B32BF601F60A8A2B01300310F00DF10D2B
:10070600FF3E031D802B0130FF007F08F607F11F17
:100716008D2B8E2B7F2B01300310F40DF50DFF3E34
:10072600031D8F2B71087302031D9B2B7008720229
:10073600031C9E2B9F2BA62B7008F2027108031C2C
:10074600F303F302741401300310F10CF00CFF3EB6
:10075600031DA72B0130F602031DB22BB32B8E2BE4
:100766007508F1007408F000080072080319BC2B24
:10077600BD2BC22B7208031DC12BC22BC92B7008BF
:100786000A128A111B220A128A110F2C7208093EBC
:10079600840083130008F300840A0008F400730839
:1007A60074040319D72BD82BF62B7208093E840044
:1007B6000008F300840A0008F4007208023E840070
:1007C6000008F500840A0008F6007608803AF7006B
:1007D6007408803A7702031DF22B7308750203181A
:1007E600F52BF62B0F2C7208023E840083130008AB
:1007F600F3007208840000087307F400740884008C
:100806007008831780007208023E8400013083134B
:100816008007840A0318800A0800F501F31F142CC8
:10082600152C1C2CF209F309F20A0319F30AF50137
:10083600F50AF11F1F2C202C252CF009F109F00ACE
:100846000319F10A7008710403192A2C2B2C5A2C4F
:10085600F401F40A392C01300310F00DF10DFF3EBE
:10086600031D2F2C0130FF007F08F407F11F3C2CDD
:100876003D2C2E2C71087302031D432C7008720246
:10088600031C462C472C4D2C7008F2027108031CE1
:10089600F303F30201300310F10CF00CFF3E031DCD
:1008A6004E2C0130F402031D592C5A2C3D2C750890
:1008B60003195E2C5F2C642CF209F309F20A031962
:1008C600F30A7308F1007208F000080000300A12FB
:1008D6008A11E3220A128A118230F500DD30F40013
:1008E600F40B732CF50B732C782C03300A128A1137
:1008F6004E220A128A112130F5007630F400F40BEC
:10090600822CF50B822C000003300A128A114E222B
:100916000A128A114830F5006C30F400F40B912C61
:10092600F50B912C000003300A128A114E220A128E
:100936008A1102300A128A114E220A128A110230D4
:100946000A128A114E220A128A1108300A128A11D4
:100956004E220A128A1100300A128A114E220A12F7
:100966008A110C300A128A114E220A128A1100309C
:100976000A128A114E220A128A1106300A128A11A6
:100986004E220A128A110800F501F11FCB2CCC2C3D
:10099600D32CF009F109F00A0319F10AF501F50A59
:1009A600F31FD62CD72CE02CF209F309F20A03190F
:1009B600F30A0130FF007F08F506F601F70170081B
:1009C60071040319E72CE82C1F2DF401F40AF62C08
:1009D60001300310F00DF10DFF3E031DEC2C01302C
:1009E600FF007F08F407F11FF92CFA2CEB2C0130DD
:1009F6000310F60DF70DFF3E031DFB2C7108730265
:100A0600031D072D70087202031C0A2D0B2D122DD3
:100A16007008F2027108031CF303F3027614013026
:100A26000310F10CF00CFF3E031D132D0130F402F0
:100A3600031D1E2D1F2DFA2C75080319232D242D99
:100A4600292DF609F709F60A0319F70A7708F100BE
:100A56007608F0000800F6007603031D332D342DCA
:100A6600512D74087F3EF9007908F5000430031013
:100A7600F50CFF3E031D3A2D7508F70079080F396E
:100A8600F80077080A128A114E220A128A1178088B
:100A96000A128A114E220A128A11BA2D02307606DD
:100AA600031D562D572D742D7408BF3EF900790885
:100AB600F50004300310F50CFF3E031D5D2D75088F
:100AC600F70079080F39F80077080A128A114E22C2
:100AD6000A128A1178080A128A114E220A128A11FB
:100AE600BA2D03307606031D792D7A2D972D7408BD
:100AF6008F3EF9007908F50004300310F50CFF3E2F
:100B0600031D802D7508F70079080F39F80077085E
:100B16000A128A114E220A128A1178080A128A11BA
:100B26004E220A128A11BA2D04307606031D9C2D18
:100B36009D2DBA2D7408CF3EF9007908F5000430D2
:100B46000310F50CFF3E031DA32D7508F700790869
:100B56000F39F80077080A128A114E220A128A11F2
:100B660078080A128A114E220A128A11BA2D080032
:100B76000A128A111C220A128A110A128A1169247F
:100B86000A128A110A128A1168220A128A110A1294
:100B96008A1130220A128A1183160317EA01EB0121
:100BA6000A128A1120220A128A1183160317E800F4
:100BB6000A128A1120220A128A1183160317E900E3
:100BC6006A0883120313E6006607E03E8400831674
:100BD6000317690883178000840A680880000130BB
:100BE60083120313D300831603176B0883120313B0
:100BF600D500831603176A0883120313D4008316DD
:100C060003176A0883120313E6006607E03E8400B2
:100C16000008D600840A0008D700831603176A0E58
:100C2600F03983120313E700831603176A086A076D
:100C360083120313E707E7076708903E0A128A1133
:100C460082220A128A11013083160317EA07031853
:100C5600EB0A0030EB076B08803AFF0080307F021A
:100C6600031D372E04306A02031C3A2E3B2ED32D69
:100C7600F401F40A01300A128A112E250A128A1189
:100C860090300A128A11A1220A128A11F401F40A7A
:100C960002300A128A112E250A128A11A4300A126B
:100CA6008A11A1220A128A11F401F40A03300A12E7
:100CB6008A112E250A128A11B8300A128A11A12227
:100CC6000A128A11F401F40A04300A128A112E2536
:100CD6000A128A11CC300A128A11A1220A128A112A
:100CE600A53083120313E600E60B772E7A2ECF2D5E
:100CF6000A128A11002883120313C8007A08840096
:100D06008313000884000A128A1103200A128A112A
:100D1600253A031D8F2E902ED32F0130FF007A081F
:100D260084007F088007C001C1010310003003184A
:100D36000130C600FF30C200FF30C3007A088400CD
:100D46000008C900490884000A128A1103200A1201
:100D56008A11643A0319B02EB12EBD2E49088400BB
:100D66000A128A1103200A128A11693A031DBC2E3F
:100D7600BD2E492F7B0884000008FF000230800743
:100D86007F0884000008CA00840A0008CB007A089D
:100D960084004908013E80002030CE00CB1BD42EB3
:100DA600D62E0130D72E0030C7000130CE024E08B5
:100DB600203E84000A30F0000030F1004B08F300BA
:100DC6004A08F2000A128A1110240A128A117108BE
:100DD600F7007008F6000A128A113D220A128A11DB
:100DE6007608303E831380000A30F0000030F100B0
:100DF600831203134B08F3004A08F2000A128A1101
:100E0600C7240A128A11710883120313CB007008D3
:100E1600CA004A084B040319112F122F172F4E0828
:100E2600031D162F172FD82E4E0803191B2F1C2F04
:100E3600422F47080319202F212F422F0130CE02BF
:100E46004E08203E84002D3083138000422F4E082A
:100E5600203E840083130008FC00FD017C08F0009E
:100E66007D08F1004808F2000A128A11B8230A1216
:100E76008A110130FF007F0883120313CE0720304A
:100E86004E06031D472F482F2A2FEA2F49088400B4
:100E96000A128A1103200A128A11753A031D542F69
:100EA600552FCB2F7B0884000008FF0002308007F7
:100EB6007F0884000008CA00840A0008CB007A086C
:100EC60084004908013E8000C02F2030CE0001304A
:100ED600CE024E08203E84000A30F0000030F100B9
:100EE6004B08F3004A08F2000A128A113A230A1242
:100EF6008A117008303E831380000A30F0000030FB
:100F0600F100831203134B08F3004A08F2000A1299
:100F16008A1174230A128A11710883120313CB00F3
:100F26007008CA004A084B0403199A2F9B2FB92F41
:100F36004E08031D9F2FA02F6A2FB92F4E08203E63
:100F4600840083130008FC00FD017C08F0007D0886
:100F5600F1004808F2000A128A11B8230A128A110F
:100F66000130FF007F0883120313CE0720304E06A0
:100F7600031DBE2FBF2FA12FEA2F490884000A1296
:100F86008A1103200A128A11753A0319682FCB2F8A
:100F96000130FF007A0884007F0883138007EA2F58
:100FA6007A088400000884000A128A1103200A12B3
:100FB6008A11FC00FD017C08F0007D08F10048085C
:100FC600F2000A128A11B8230A128A11CB2F0800DE
:100FD60083132030840047300A128A1128220A120D
:100FE6008A11A0308400C8300A128A1128220A12F7
:0A0FF6008A1183010A128A11BB2D33
:02400E00723FFF
:00000001FF
