:100000000A128A11E22F00308A000408840A82074B
:100010000034563431343D3425346434003456349D
:1000200032343D34253464340034563433343D3472
:10003000253464340034563434343D342534643447
:0200400000348A
:1004B2000800831603138601080064008001840A81
:1004C20004060319003404065F2AF000831603139E
:1004D200981C6C2A6D2A672A7008831203139900EC
:1004E200080000300A128A11A6220A128A1101306B
:1004F2000A128A11A6220A128A110800F71B822AFE
:10050200832A842A8F2A7609F8007709F900F80AE3
:100512000319F90A7808F6007908F700080083122F
:1005220003131F179F13831603131F179F171F1001
:100532009F101F119F11831203131F141F1583167F
:1005420003130514851405150800F3008312031321
:10055200061073080A128A113B230A128A118312A7
:10056200031386141A30F200F830F100F10BB72AA7
:10057200F20BB72A000083120313861008008316B9
:1005820003130713871798131813981618121815C0
:10059200981018108312031398171813981218162C
:1005A20098111811981018108130831603139900AE
:1005B200080083120313D2004E30D1005208D30038
:1005C200D501D601DC01DD014D08C9005130CA0058
:1005D20053300A128A111A230A128A118312031340
:1005E20055085207D0005008840083138001080088
:1005F200F800F601F7010E2B76087807F50075086A
:10060200840000080A128A115D230A128A1101303D
:10061200F6070318F70A0030F70776087807F5009F
:100622007508840083130008031D182B192BFD2A5B
:10063200080083120313CB004908CC002A2B4C304C
:10064200FA004A08FB004B080A128A11E8250A122E
:100652008A11831203134C0884000A128A110320A0
:100662000A128A11003A031D372B382B202BC9019D
:10067200CA010800F000701C3F2B402B442B831250
:1006820003130615472B831203130611F01C4A2B82
:100692004B2B4D2B86154E2B8611701D512B522B39
:1006A200542B0616552B0612F01D582B592B5B2B7B
:1006B20086165C2B86120800F40074080F39F200CB
:1006C2007408F039F3008312031306147308F1005F
:1006D20004300310F10CFF3E031D6A2B71080A124D
:1006E2008A113B230A128A118312031386144230A1
:1006F200F100F10B7A2B00008312031386107208AB
:100702000A128A113B230A128A11831203138614D6
:100712004230F100F10B8B2B000083120313861081
:100722000800BB2BC730831203139F05D42B8312FF
:1007320003131F08C73908389F00D42B83120313F1
:100742001F08C73910389F00D42B831203131F08C8
:10075200C73918389F00D42B831203131F08C739D7
:1007620020389F00D42B831203131F08C73928385F
:100772009F00D42B7108003A0319C02BD42B7008A8
:10078200003A0319932B013A0319982B033A0319E0
:100792009F2B013A0319A62B073A0319AD2B013AF5
:1007A2000319B42BD42BA630F200F20BD62B000087
:1007B200831203131F151F19DF2BE02BDC2B1E08DE
:1007C200F100831603131E08F000080072080319D3
:1007D200EB2BEC2BF12B7208031DF02BF12BF82BDA
:1007E20070080A128A1159220A128A113C2C7208C4
:1007F200093E840083130008F300840A0008F40011
:10080200730874040319062C072C252C7208093E60
:1008120084000008F300840A0008F4007208023E13
:1008220084000008F500840A0008F6007608803A81
:10083200F7007408803A7702031D212C73087502B1
:100842000318242C252C3C2C7208023E84008313AE
:100852000008F3007208840000087307F4007408AB
:100862008400700880007208023E84000130800714
:10087200840A0318800A0800F501F31F412C422C58
:10088200492CF209F309F20A0319F30AF501F50AF0
:10089200F11F4C2C4D2C522CF009F109F00A0319CE
:1008A200F10A700871040319572C582C872CF40193
:1008B200F40A662C01300310F00DF10DFF3E031D0A
:1008C2005C2C0130FF007F08F407F11F692C6A2CB1
:1008D2005B2C71087302031D702C70087202031CDA
:1008E200732C742C7A2C7008F2027108031CF30327
:1008F200F30201300310F10CF00CFF3E031D7B2CC0
:100902000130F402031D862C872C6A2C750803190A
:100912008B2C8C2C912CF209F309F20A0319F30A9D
:100922007308F1007208F000080000300A128A1100
:100932003B230A128A118230F500DD30F400F40BF9
:10094200A02CF50BA02CA52C03300A128A11A6228A
:100952000A128A112130F5007630F400F40BAF2C24
:10096200F50BAF2C000003300A128A11A6220A12DC
:100972008A114830F5006C30F400F40BBE2CF50BF4
:10098200BE2C000003300A128A11A6220A128A1112
:1009920002300A128A11A6220A128A1102300A129F
:1009A2008A11A6220A128A1108300A128A11A62274
:1009B2000A128A1100300A128A11A6220A128A1118
:1009C2000C300A128A11A6220A128A1100300A1267
:1009D2008A11A6220A128A1106300A128A11A62246
:1009E2000A128A110800F501F11FF82CF92C002DCA
:1009F200F009F109F00A0319F10AF501F50AF31FEA
:100A0200032D042D0D2DF209F309F20A0319F30A3D
:100A12000130FF007F08F506F601F7017008710446
:100A22000319142D152D4C2DF401F40A232D013038
:100A32000310F00DF10DFF3E031D192D0130FF00D3
:100A42007F08F407F11F262D272D182D01300310E2
:100A5200F60DF70DFF3E031D282D71087302031DCD
:100A6200342D70087202031C372D382D3F2D70086B
:100A7200F2027108031CF303F3027614013003102F
:100A8200F10CF00CFF3E031D402D0130F402031D5A
:100A92004B2D4C2D272D75080319502D512D562DF8
:100AA200F609F709F60A0319F70A7708F10076083A
:100AB200F0000800F6007603031D602D612D7E2DE7
:100AC20074087F3EF9007908F50004300310F50C34
:100AD200FF3E031D672D7508F70079080F39F800EE
:100AE20077080A128A11A6220A128A1178080A12B3
:100AF2008A11A6220A128A11E72D02307606031DF8
:100B0200832D842DA12D7408BF3EF9007908F500CC
:100B120004300310F50CFF3E031D8A2D7508F70003
:100B220079080F39F80077080A128A11A6220A12E8
:100B32008A1178080A128A11A6220A128A11E72D4E
:100B420003307606031DA62DA72DC42D74088F3EF3
:100B5200F9007908F50004300310F50CFF3E031D7F
:100B6200AD2D7508F70079080F39F80077080A12D9
:100B72008A11A6220A128A1178080A128A11A6225A
:100B82000A128A11E72D04307606031DC92DCA2DDB
:100B9200E72D7408CF3EF9007908F5000430031000
:100BA200F50CFF3E031DD02D7508F70079080F39AB
:100BB200F80077080A128A11A6220A128A11780806
:100BC2000A128A11A6220A128A11E72D080083123C
:100BD2000313C2007A0884008313000884000A12F7
:100BE2008A1103200A128A11253A031DF92DFA2DC2
:100BF200BB2E0130FF007A0884007F088007A00125
:100C0200A1010310003003180130AC00FF30A20034
:100C1200FF30A3007A0884000008C3004308840060
:100C22000A128A1103200A128A11643A03191A2E2F
:100C32001B2E272E430884000A128A1103200A124F
:100C42008A11693A031D262E272EB32E7B088400B3
:100C52000008FF00023080077F0884000008C400FB
:100C6200840A0008C5007A0884004308013E800017
:100C72002030C800C51B3E2E402E0130412E0030D0
:100C8200C1000130C8024808903E84000A30F000DA
:100C92000030F1004508F3004408F2000A128A11FC
:100CA2003D240A128A117108F7007008F6000A1230
:100CB2008A117F220A128A117608303E8317800039
:100CC2000A30F0000030F100831203134508F300EC
:100CD2004408F2000A128A11F4240A128A117108D5
:100CE20083120313C5007008C400440845040319A5
:100CF2007B2E7C2E812E4808031D802E812E422EB3
:100D020048080319852E862EAC2E410803198A2E17
:100D12008B2EAC2E0130C8024808903E84002D3044
:100D220083178000AC2E4808903E84008317000889
:100D3200FC00FD017C08F0007D08F1004208F20091
:100D42000A128A11E7230A128A110130FF007F0872
:100D520083120313C80720304806031DB12EB22E9A
:100D6200942ED22E0130FF007A0884007F0883136C
:100D72008007D22E7A088400000884000A128A11A1
:100D820003200A128A11FC00FD017C08F0007D0894
:100D9200F1004208F2000A128A11E7230A128A11AC
:100DA200B32E08000A128A11C0220A128A110A12EC
:100DB2008A115A220A128A110A128A1196240A12D6
:100DC2008A110A128A1190220A128A110A128A11AF
:100DD20072220A128A110030F000F1000A128A11FE
:100DE20092230A128A11710883120313AB0070084E
:100DF200AA000130F0000030F1000A128A11922399
:100E02000A128A11710883120313A9007008A8003C
:100E12000230F0000030F1000A128A1192230A1205
:100E22008A11710883120313A7007008A600033009
:100E3200F0000030F1000A128A1192230A128A117C
:100E4200710883120313A5007008A400F401F40AC8
:100E520001300A128A115B250A128A1101308312AB
:100E62000313CD002B08CF002A08CE002D300A1222
:100E72008A11DA220A128A112D300A128A11F922F3
:100E82000A128A11F401F40A02300A128A115B254D
:100E92000A128A11073083120313CD002908CF00EA
:100EA2002808CE00C8300A128A11DA220A128A11E0
:100EB200C8300A128A11F9220A128A11F401F40ABC
:100EC20003300A128A115B250A128A110D3083122D
:100ED2000313CD002708CF002608CE00B4300A1233
:100EE2008A11DA220A128A11B4300A128A11F922FC
:100EF2000A128A11F401F40A04300A128A115B25DB
:100F02000A128A11133083120313CD002508CF0071
:100F12002408CE00A0300A128A11DA220A128A119B
:100F2200A0300A128A11F9220A128A1183120313BB
:100F32002B080A128A1166220A128A1183120313DB
:100F42002A080A128A1166220A128A1183120313CC
:100F520029080A128A1166220A128A1183120313BD
:100F620028080A128A1166220A128A1183120313AE
:100F720027080A128A1166220A128A11831203139F
:100F820026080A128A1166220A128A118312031390
:100F920025080A128A1166220A128A118312031381
:100FA20024080A128A1166220A128A11A5308312B3
:100FB2000313DE00DE0BDB2FDE2FEC2E0A128A116A
:100FC200002883132030840041300A128A115E22E5
:100FD2000A128A11A0308400DC300A128A115E22C1
:100FE2000A128A11831790308400B0300A128A11D3
:0E0FF2005E220A128A1183010A128A11D32E7E
:02400E00723FFF
:00000001FF
